{"abi":[{"type":"constructor","inputs":[{"name":"_submitters","type":"address[]","internalType":"address[]"},{"name":"_computers","type":"address[]","internalType":"address[]"},{"name":"_verifiers","type":"address[]","internalType":"address[]"}],"stateMutability":"nonpayable"},{"type":"function","name":"computeRootHashes","inputs":[{"name":"","type":"bytes32","internalType":"bytes32"},{"name":"","type":"bytes32","internalType":"bytes32"}],"outputs":[{"name":"","type":"bytes32","internalType":"bytes32"}],"stateMutability":"view"},{"type":"function","name":"computers","inputs":[{"name":"","type":"address","internalType":"address"}],"outputs":[{"name":"","type":"bool","internalType":"bool"}],"stateMutability":"view"},{"type":"function","name":"hasTx","inputs":[{"name":"","type":"bytes32","internalType":"bytes32"}],"outputs":[{"name":"","type":"bool","internalType":"bool"}],"stateMutability":"view"},{"type":"function","name":"submitComputeCommitment","inputs":[{"name":"computeAssignTxHash","type":"bytes32","internalType":"bytes32"},{"name":"computeCommitTxHash","type":"bytes32","internalType":"bytes32"},{"name":"computeRootHash","type":"bytes32","internalType":"bytes32"},{"name":"sig","type":"tuple","internalType":"struct ComputeManager.Signature","components":[{"name":"s","type":"bytes32","internalType":"bytes32"},{"name":"r","type":"bytes32","internalType":"bytes32"},{"name":"r_id","type":"uint8","internalType":"uint8"}]}],"outputs":[],"stateMutability":"nonpayable"},{"type":"function","name":"submitComputeVerification","inputs":[{"name":"computeVerifyTxHash","type":"bytes32","internalType":"bytes32"},{"name":"computeAssignTxHash","type":"bytes32","internalType":"bytes32"},{"name":"sig","type":"tuple","internalType":"struct ComputeManager.Signature","components":[{"name":"s","type":"bytes32","internalType":"bytes32"},{"name":"r","type":"bytes32","internalType":"bytes32"},{"name":"r_id","type":"uint8","internalType":"uint8"}]}],"outputs":[],"stateMutability":"nonpayable"},{"type":"function","name":"submitters","inputs":[{"name":"","type":"address","internalType":"address"}],"outputs":[{"name":"","type":"bool","internalType":"bool"}],"stateMutability":"view"},{"type":"function","name":"verifiers","inputs":[{"name":"","type":"address","internalType":"address"}],"outputs":[{"name":"","type":"bool","internalType":"bool"}],"stateMutability":"view"},{"type":"event","name":"ComputeCommitted","inputs":[{"name":"txHash","type":"bytes32","indexed":false,"internalType":"bytes32"},{"name":"computer","type":"address","indexed":true,"internalType":"address"}],"anonymous":false},{"type":"event","name":"ComputeVerified","inputs":[{"name":"txHash","type":"bytes32","indexed":false,"internalType":"bytes32"},{"name":"verifier","type":"address","indexed":true,"internalType":"address"}],"anonymous":false}],"bytecode":{"object":"0x60806040523480156200001157600080fd5b5060405162000b6738038062000b6783398101604081905262000034916200026b565b60005b8351811015620000a25760016000808684815181106200005b576200005b620002fc565b6020908102919091018101516001600160a01b03168252810191909152604001600020805460ff191691151591909117905580620000998162000312565b91505062000037565b5060005b825181101562000111576001806000858481518110620000ca57620000ca620002fc565b6020908102919091018101516001600160a01b03168252810191909152604001600020805460ff191691151591909117905580620001088162000312565b915050620000a6565b5060005b815181101562000181576001600260008484815181106200013a576200013a620002fc565b6020908102919091018101516001600160a01b03168252810191909152604001600020805460ff191691151591909117905580620001788162000312565b91505062000115565b505050506200033a565b634e487b7160e01b600052604160045260246000fd5b80516001600160a01b0381168114620001b957600080fd5b919050565b600082601f830112620001d057600080fd5b815160206001600160401b0380831115620001ef57620001ef6200018b565b8260051b604051601f19603f830116810181811084821117156200021757620002176200018b565b6040529384528581018301938381019250878511156200023657600080fd5b83870191505b8482101562000260576200025082620001a1565b835291830191908301906200023c565b979650505050505050565b6000806000606084860312156200028157600080fd5b83516001600160401b03808211156200029957600080fd5b620002a787838801620001be565b94506020860151915080821115620002be57600080fd5b620002cc87838801620001be565b93506040860151915080821115620002e357600080fd5b50620002f286828701620001be565b9150509250925092565b634e487b7160e01b600052603260045260246000fd5b6000600182016200033357634e487b7160e01b600052601160045260246000fd5b5060010190565b61081d806200034a6000396000f3fe608060405234801561001057600080fd5b506004361061007d5760003560e01c80636c8244871161005b5780636c824487146100f25780639228a04614610115578063ce4bcbee1461014e578063eb021d5c1461016157600080fd5b806306560435146100825780632d200a6f146100ba57806359fb68ac146100dd575b600080fd5b6100a561009036600461067e565b60006020819052908152604090205460ff1681565b60405190151581526020015b60405180910390f35b6100a56100c83660046106bb565b60046020526000908152604090205460ff1681565b6100f06100eb3660046106ec565b610184565b005b6100a561010036600461067e565b60026020526000908152604090205460ff1681565b61014061012336600461072c565b600360209081526000928352604080842090915290825290205481565b6040519081526020016100b1565b6100f061015c36600461074e565b610344565b6100a561016f36600461067e565b60016020526000908152604090205460ff1681565b3360009081526020819052604090205460ff1661020e5760405162461bcd60e51b815260206004820152602660248201527f4f6e6c79207375626d6974746572732063616e2063616c6c207468697320667560448201527f6e6374696f6e000000000000000000000000000000000000000000000000000060648201526084015b60405180910390fd5b600061021a8483610560565b73ffffffffffffffffffffffffffffffffffffffff811660009081526001602052604090205490915060ff166102925760405162461bcd60e51b815260206004820152601860248201527f436f6d7075746572206e6f742077686974656c697374656400000000000000006044820152606401610205565b6000858152600360209081526040808320878452825280832086905587835260048252808320805460017fffffffffffffffffffffffffffffffffffffffffffffffffffffffffffffff00918216811790925588855293829020805490941617909255905185815273ffffffffffffffffffffffffffffffffffffffff8316917f843880b90889de74e0ff427f00391545af2a88d88e093568b6b8724041fed7a8910160405180910390a25050505050565b3360009081526020819052604090205460ff166103c95760405162461bcd60e51b815260206004820152602660248201527f4f6e6c79207375626d6974746572732063616e2063616c6c207468697320667560448201527f6e6374696f6e00000000000000000000000000000000000000000000000000006064820152608401610205565b60006103d58483610560565b73ffffffffffffffffffffffffffffffffffffffff811660009081526002602052604090205490915060ff1661044d5760405162461bcd60e51b815260206004820152601860248201527f5665726966696572206e6f742077686974656c697374656400000000000000006044820152606401610205565b60008381526004602052604090205460ff166104d15760405162461bcd60e51b815260206004820152602560248201527f4d61746368696e6720436f6d7075746541737369676e6d656e74205458206d6960448201527f7373696e670000000000000000000000000000000000000000000000000000006064820152608401610205565b6000848152600460205260409081902080547fffffffffffffffffffffffffffffffffffffffffffffffffffffffffffffff001660011790555173ffffffffffffffffffffffffffffffffffffffff8216907faf0fd28373080ab7139b0788c6327bb65868d39ae3918e8d997d44b316568171906105529087815260200190565b60405180910390a250505050565b60008080806105756060860160408701610784565b61058090601b6107a7565b60408051600080825260208281018085528b905260ff851693830193909352918801356060820181905288356080830181905293965094509192509060019060a0016020604051602081039080840390855afa1580156105e4573d6000803e3d6000fd5b50506040517fffffffffffffffffffffffffffffffffffffffffffffffffffffffffffffffe0015191505073ffffffffffffffffffffffffffffffffffffffff81166106725760405162461bcd60e51b815260206004820152601160248201527f496e76616c6964207369676e61747572650000000000000000000000000000006044820152606401610205565b93505050505b92915050565b60006020828403121561069057600080fd5b813573ffffffffffffffffffffffffffffffffffffffff811681146106b457600080fd5b9392505050565b6000602082840312156106cd57600080fd5b5035919050565b6000606082840312156106e657600080fd5b50919050565b60008060008060c0858703121561070257600080fd5b84359350602085013592506040850135915061072186606087016106d4565b905092959194509250565b6000806040838503121561073f57600080fd5b50508035926020909101359150565b600080600060a0848603121561076357600080fd5b833592506020840135915061077b85604086016106d4565b90509250925092565b60006020828403121561079657600080fd5b813560ff811681146106b457600080fd5b60ff8181168382160190811115610678577f4e487b7100000000000000000000000000000000000000000000000000000000600052601160045260246000fdfea26469706673582212208a11216de1084436d9b33ef4bd9f0a5c99f97221350db96d44e2281a1688fa5464736f6c63430008110033","linkReferences":{}},"methodIdentifiers":{"computeRootHashes(bytes32,bytes32)":"9228a046","computers(address)":"eb021d5c","hasTx(bytes32)":"2d200a6f","submitComputeCommitment(bytes32,bytes32,bytes32,(bytes32,bytes32,uint8))":"59fb68ac","submitComputeVerification(bytes32,bytes32,(bytes32,bytes32,uint8))":"ce4bcbee","submitters(address)":"06560435","verifiers(address)":"6c824487"},"id":25}